{
  "_format": "hh-sol-artifact-1",
  "contractName": "BasicNft",
  "sourceName": "contracts/BasicNft.sol",
  "abi": [
    {
      "inputs": [],
      "stateMutability": "nonpayable",
      "type": "constructor"
    },
    {
      "inputs": [
        {
          "internalType": "address",
          "name": "sender",
          "type": "address"
        },
        {
          "internalType": "uint256",
          "name": "tokenId",
          "type": "uint256"
        },
        {
          "internalType": "address",
          "name": "owner",
          "type": "address"
        }
      ],
      "name": "ERC721IncorrectOwner",
      "type": "error"
    },
    {
      "inputs": [
        {
          "internalType": "address",
          "name": "operator",
          "type": "address"
        },
        {
          "internalType": "uint256",
          "name": "tokenId",
          "type": "uint256"
        }
      ],
      "name": "ERC721InsufficientApproval",
      "type": "error"
    },
    {
      "inputs": [
        {
          "internalType": "address",
          "name": "approver",
          "type": "address"
        }
      ],
      "name": "ERC721InvalidApprover",
      "type": "error"
    },
    {
      "inputs": [
        {
          "internalType": "address",
          "name": "operator",
          "type": "address"
        }
      ],
      "name": "ERC721InvalidOperator",
      "type": "error"
    },
    {
      "inputs": [
        {
          "internalType": "address",
          "name": "owner",
          "type": "address"
        }
      ],
      "name": "ERC721InvalidOwner",
      "type": "error"
    },
    {
      "inputs": [
        {
          "internalType": "address",
          "name": "receiver",
          "type": "address"
        }
      ],
      "name": "ERC721InvalidReceiver",
      "type": "error"
    },
    {
      "inputs": [
        {
          "internalType": "address",
          "name": "sender",
          "type": "address"
        }
      ],
      "name": "ERC721InvalidSender",
      "type": "error"
    },
    {
      "inputs": [
        {
          "internalType": "uint256",
          "name": "tokenId",
          "type": "uint256"
        }
      ],
      "name": "ERC721NonexistentToken",
      "type": "error"
    },
    {
      "anonymous": false,
      "inputs": [
        {
          "indexed": true,
          "internalType": "address",
          "name": "owner",
          "type": "address"
        },
        {
          "indexed": true,
          "internalType": "address",
          "name": "approved",
          "type": "address"
        },
        {
          "indexed": true,
          "internalType": "uint256",
          "name": "tokenId",
          "type": "uint256"
        }
      ],
      "name": "Approval",
      "type": "event"
    },
    {
      "anonymous": false,
      "inputs": [
        {
          "indexed": true,
          "internalType": "address",
          "name": "owner",
          "type": "address"
        },
        {
          "indexed": true,
          "internalType": "address",
          "name": "operator",
          "type": "address"
        },
        {
          "indexed": false,
          "internalType": "bool",
          "name": "approved",
          "type": "bool"
        }
      ],
      "name": "ApprovalForAll",
      "type": "event"
    },
    {
      "anonymous": false,
      "inputs": [
        {
          "indexed": true,
          "internalType": "address",
          "name": "from",
          "type": "address"
        },
        {
          "indexed": true,
          "internalType": "address",
          "name": "to",
          "type": "address"
        },
        {
          "indexed": true,
          "internalType": "uint256",
          "name": "tokenId",
          "type": "uint256"
        }
      ],
      "name": "Transfer",
      "type": "event"
    },
    {
      "inputs": [
        {
          "internalType": "address",
          "name": "to",
          "type": "address"
        },
        {
          "internalType": "uint256",
          "name": "tokenId",
          "type": "uint256"
        }
      ],
      "name": "approve",
      "outputs": [],
      "stateMutability": "nonpayable",
      "type": "function"
    },
    {
      "inputs": [
        {
          "internalType": "address",
          "name": "owner",
          "type": "address"
        }
      ],
      "name": "balanceOf",
      "outputs": [
        {
          "internalType": "uint256",
          "name": "",
          "type": "uint256"
        }
      ],
      "stateMutability": "view",
      "type": "function"
    },
    {
      "inputs": [],
      "name": "fashion_uri",
      "outputs": [
        {
          "internalType": "string",
          "name": "",
          "type": "string"
        }
      ],
      "stateMutability": "view",
      "type": "function"
    },
    {
      "inputs": [
        {
          "internalType": "uint256",
          "name": "tokenId",
          "type": "uint256"
        }
      ],
      "name": "getApproved",
      "outputs": [
        {
          "internalType": "address",
          "name": "",
          "type": "address"
        }
      ],
      "stateMutability": "view",
      "type": "function"
    },
    {
      "inputs": [],
      "name": "getTokenCounter",
      "outputs": [
        {
          "internalType": "uint256",
          "name": "",
          "type": "uint256"
        }
      ],
      "stateMutability": "view",
      "type": "function"
    },
    {
      "inputs": [],
      "name": "ghost_uri",
      "outputs": [
        {
          "internalType": "string",
          "name": "",
          "type": "string"
        }
      ],
      "stateMutability": "view",
      "type": "function"
    },
    {
      "inputs": [],
      "name": "godfather_uri",
      "outputs": [
        {
          "internalType": "string",
          "name": "",
          "type": "string"
        }
      ],
      "stateMutability": "view",
      "type": "function"
    },
    {
      "inputs": [
        {
          "internalType": "address",
          "name": "owner",
          "type": "address"
        },
        {
          "internalType": "address",
          "name": "operator",
          "type": "address"
        }
      ],
      "name": "isApprovedForAll",
      "outputs": [
        {
          "internalType": "bool",
          "name": "",
          "type": "bool"
        }
      ],
      "stateMutability": "view",
      "type": "function"
    },
    {
      "inputs": [],
      "name": "mintNft",
      "outputs": [],
      "stateMutability": "nonpayable",
      "type": "function"
    },
    {
      "inputs": [],
      "name": "name",
      "outputs": [
        {
          "internalType": "string",
          "name": "",
          "type": "string"
        }
      ],
      "stateMutability": "view",
      "type": "function"
    },
    {
      "inputs": [
        {
          "internalType": "uint256",
          "name": "tokenId",
          "type": "uint256"
        }
      ],
      "name": "ownerOf",
      "outputs": [
        {
          "internalType": "address",
          "name": "",
          "type": "address"
        }
      ],
      "stateMutability": "view",
      "type": "function"
    },
    {
      "inputs": [
        {
          "internalType": "address",
          "name": "from",
          "type": "address"
        },
        {
          "internalType": "address",
          "name": "to",
          "type": "address"
        },
        {
          "internalType": "uint256",
          "name": "tokenId",
          "type": "uint256"
        }
      ],
      "name": "safeTransferFrom",
      "outputs": [],
      "stateMutability": "nonpayable",
      "type": "function"
    },
    {
      "inputs": [
        {
          "internalType": "address",
          "name": "from",
          "type": "address"
        },
        {
          "internalType": "address",
          "name": "to",
          "type": "address"
        },
        {
          "internalType": "uint256",
          "name": "tokenId",
          "type": "uint256"
        },
        {
          "internalType": "bytes",
          "name": "data",
          "type": "bytes"
        }
      ],
      "name": "safeTransferFrom",
      "outputs": [],
      "stateMutability": "nonpayable",
      "type": "function"
    },
    {
      "inputs": [
        {
          "internalType": "address",
          "name": "operator",
          "type": "address"
        },
        {
          "internalType": "bool",
          "name": "approved",
          "type": "bool"
        }
      ],
      "name": "setApprovalForAll",
      "outputs": [],
      "stateMutability": "nonpayable",
      "type": "function"
    },
    {
      "inputs": [],
      "name": "smoke_uri",
      "outputs": [
        {
          "internalType": "string",
          "name": "",
          "type": "string"
        }
      ],
      "stateMutability": "view",
      "type": "function"
    },
    {
      "inputs": [
        {
          "internalType": "bytes4",
          "name": "interfaceId",
          "type": "bytes4"
        }
      ],
      "name": "supportsInterface",
      "outputs": [
        {
          "internalType": "bool",
          "name": "",
          "type": "bool"
        }
      ],
      "stateMutability": "view",
      "type": "function"
    },
    {
      "inputs": [],
      "name": "symbol",
      "outputs": [
        {
          "internalType": "string",
          "name": "",
          "type": "string"
        }
      ],
      "stateMutability": "view",
      "type": "function"
    },
    {
      "inputs": [
        {
          "internalType": "uint256",
          "name": "tokenId",
          "type": "uint256"
        }
      ],
      "name": "tokenURI",
      "outputs": [
        {
          "internalType": "string",
          "name": "",
          "type": "string"
        }
      ],
      "stateMutability": "view",
      "type": "function"
    },
    {
      "inputs": [
        {
          "internalType": "address",
          "name": "from",
          "type": "address"
        },
        {
          "internalType": "address",
          "name": "to",
          "type": "address"
        },
        {
          "internalType": "uint256",
          "name": "tokenId",
          "type": "uint256"
        }
      ],
      "name": "transferFrom",
      "outputs": [],
      "stateMutability": "nonpayable",
      "type": "function"
    }
  ],
  "bytecode": "0x60806040523480156200001157600080fd5b506040518060400160405280600681526020017f4d6f6e6b657900000000000000000000000000000000000000000000000000008152506040518060400160405280600381526020017f415045000000000000000000000000000000000000000000000000000000000081525081600090816200008f91906200032c565b508060019081620000a191906200032c565b505050600060068190555062000413565b600081519050919050565b7f4e487b7100000000000000000000000000000000000000000000000000000000600052604160045260246000fd5b7f4e487b7100000000000000000000000000000000000000000000000000000000600052602260045260246000fd5b600060028204905060018216806200013457607f821691505b6020821081036200014a5762000149620000ec565b5b50919050565b60008190508160005260206000209050919050565b60006020601f8301049050919050565b600082821b905092915050565b600060088302620001b47fffffffffffffffffffffffffffffffffffffffffffffffffffffffffffffffff8262000175565b620001c0868362000175565b95508019841693508086168417925050509392505050565b6000819050919050565b6000819050919050565b60006200020d620002076200020184620001d8565b620001e2565b620001d8565b9050919050565b6000819050919050565b6200022983620001ec565b62000241620002388262000214565b84845462000182565b825550505050565b600090565b6200025862000249565b620002658184846200021e565b505050565b5b818110156200028d57620002816000826200024e565b6001810190506200026b565b5050565b601f821115620002dc57620002a68162000150565b620002b18462000165565b81016020851015620002c1578190505b620002d9620002d08562000165565b8301826200026a565b50505b505050565b600082821c905092915050565b60006200030160001984600802620002e1565b1980831691505092915050565b60006200031c8383620002ee565b9150826002028217905092915050565b6200033782620000b2565b67ffffffffffffffff811115620003535762000352620000bd565b5b6200035f82546200011b565b6200036c82828562000291565b600060209050601f831160018114620003a457600084156200038f578287015190505b6200039b85826200030e565b8655506200040b565b601f198416620003b48662000150565b60005b82811015620003de57848901518255600182019150602085019450602081019050620003b7565b86831015620003fe5784890151620003fa601f891682620002ee565b8355505b6001600288020188555050505b505050505050565b611ef880620004236000396000f3fe608060405234801561001057600080fd5b50600436106101215760003560e01c806370a08231116100ad578063c2229fea11610071578063c2229fea14610308578063c77315bc14610312578063c87b56dd14610330578063e985e9c514610360578063f16bc5db1461039057610121565b806370a0823114610264578063754ffaf11461029457806395d89b41146102b2578063a22cb465146102d0578063b88d4fde146102ec57610121565b806323b872dd116100f457806323b872dd146101c057806342842e0e146101dc57806343f16815146101f85780636352211e146102165780636e02007d1461024657610121565b806301ffc9a71461012657806306fdde0314610156578063081812fc14610174578063095ea7b3146101a4575b600080fd5b610140600480360381019061013b91906115ac565b6103ae565b60405161014d91906115f4565b60405180910390f35b61015e610490565b60405161016b919061169f565b60405180910390f35b61018e600480360381019061018991906116f7565b610522565b60405161019b9190611765565b60405180910390f35b6101be60048036038101906101b991906117ac565b61053e565b005b6101da60048036038101906101d591906117ec565b610554565b005b6101f660048036038101906101f191906117ec565b610656565b005b610200610676565b60405161020d919061169f565b60405180910390f35b610230600480360381019061022b91906116f7565b610692565b60405161023d9190611765565b60405180910390f35b61024e6106a4565b60405161025b919061184e565b60405180910390f35b61027e60048036038101906102799190611869565b6106ae565b60405161028b919061184e565b60405180910390f35b61029c610768565b6040516102a9919061169f565b60405180910390f35b6102ba610784565b6040516102c7919061169f565b60405180910390f35b6102ea60048036038101906102e591906118c2565b610816565b005b61030660048036038101906103019190611a37565b61082c565b005b610310610849565b005b61031a61086c565b604051610327919061169f565b60405180910390f35b61034a600480360381019061034591906116f7565b610888565b604051610357919061169f565b60405180910390f35b61037a60048036038101906103759190611aba565b61094d565b60405161038791906115f4565b60405180910390f35b6103986109e1565b6040516103a5919061169f565b60405180910390f35b60007f80ac58cd000000000000000000000000000000000000000000000000000000007bffffffffffffffffffffffffffffffffffffffffffffffffffffffff1916827bffffffffffffffffffffffffffffffffffffffffffffffffffffffff1916148061047957507f5b5e139f000000000000000000000000000000000000000000000000000000007bffffffffffffffffffffffffffffffffffffffffffffffffffffffff1916827bffffffffffffffffffffffffffffffffffffffffffffffffffffffff1916145b806104895750610488826109fd565b5b9050919050565b60606000805461049f90611b29565b80601f01602080910402602001604051908101604052809291908181526020018280546104cb90611b29565b80156105185780601f106104ed57610100808354040283529160200191610518565b820191906000526020600020905b8154815290600101906020018083116104fb57829003601f168201915b5050505050905090565b600061052d82610a67565b5061053782610aef565b9050919050565b610550828261054b610b2c565b610b34565b5050565b600073ffffffffffffffffffffffffffffffffffffffff168273ffffffffffffffffffffffffffffffffffffffff16036105c65760006040517f64a0ae920000000000000000000000000000000000000000000000000000000081526004016105bd9190611765565b60405180910390fd5b60006105da83836105d5610b2c565b610b46565b90508373ffffffffffffffffffffffffffffffffffffffff168173ffffffffffffffffffffffffffffffffffffffff1614610650578382826040517f64283d7b00000000000000000000000000000000000000000000000000000000815260040161064793929190611b5a565b60405180910390fd5b50505050565b6106718383836040518060200160405280600081525061082c565b505050565b604051806080016040528060598152602001611d616059913981565b600061069d82610a67565b9050919050565b6000600654905090565b60008073ffffffffffffffffffffffffffffffffffffffff168273ffffffffffffffffffffffffffffffffffffffff16036107215760006040517f89c62b640000000000000000000000000000000000000000000000000000000081526004016107189190611765565b60405180910390fd5b600360008373ffffffffffffffffffffffffffffffffffffffff1673ffffffffffffffffffffffffffffffffffffffff168152602001908152602001600020549050919050565b604051806080016040528060578152602001611dba6057913981565b60606001805461079390611b29565b80601f01602080910402602001604051908101604052809291908181526020018280546107bf90611b29565b801561080c5780601f106107e15761010080835404028352916020019161080c565b820191906000526020600020905b8154815290600101906020018083116107ef57829003601f168201915b5050505050905090565b610828610821610b2c565b8383610d60565b5050565b610837848484610554565b61084384848484610ecf565b50505050565b61085533600654611086565b60016006546108649190611bc0565b600681905550565b6040518060800160405280605b8152602001611e11605b913981565b60606000600460065461089b9190611c23565b036108c057604051806080016040528060598152602001611d61605991399050610948565b600160046006546108d19190611c23565b036108f657604051806080016040528060578152602001611e6c605791399050610948565b600260046006546109079190611c23565b0361092c576040518060800160405280605b8152602001611e11605b91399050610948565b604051806080016040528060578152602001611dba6057913990505b919050565b6000600560008473ffffffffffffffffffffffffffffffffffffffff1673ffffffffffffffffffffffffffffffffffffffff16815260200190815260200160002060008373ffffffffffffffffffffffffffffffffffffffff1673ffffffffffffffffffffffffffffffffffffffff16815260200190815260200160002060009054906101000a900460ff16905092915050565b604051806080016040528060578152602001611e6c6057913981565b60007f01ffc9a7000000000000000000000000000000000000000000000000000000007bffffffffffffffffffffffffffffffffffffffffffffffffffffffff1916827bffffffffffffffffffffffffffffffffffffffffffffffffffffffff1916149050919050565b600080610a73836110a4565b9050600073ffffffffffffffffffffffffffffffffffffffff168173ffffffffffffffffffffffffffffffffffffffff1603610ae657826040517f7e273289000000000000000000000000000000000000000000000000000000008152600401610add919061184e565b60405180910390fd5b80915050919050565b60006004600083815260200190815260200160002060009054906101000a900473ffffffffffffffffffffffffffffffffffffffff169050919050565b600033905090565b610b4183838360016110e1565b505050565b600080610b52846110a4565b9050600073ffffffffffffffffffffffffffffffffffffffff168373ffffffffffffffffffffffffffffffffffffffff1614610b9457610b938184866112a6565b5b600073ffffffffffffffffffffffffffffffffffffffff168173ffffffffffffffffffffffffffffffffffffffff1614610c2557610bd66000856000806110e1565b6001600360008373ffffffffffffffffffffffffffffffffffffffff1673ffffffffffffffffffffffffffffffffffffffff168152602001908152602001600020600082825403925050819055505b600073ffffffffffffffffffffffffffffffffffffffff168573ffffffffffffffffffffffffffffffffffffffff1614610ca8576001600360008773ffffffffffffffffffffffffffffffffffffffff1673ffffffffffffffffffffffffffffffffffffffff168152602001908152602001600020600082825401925050819055505b846002600086815260200190815260200160002060006101000a81548173ffffffffffffffffffffffffffffffffffffffff021916908373ffffffffffffffffffffffffffffffffffffffff160217905550838573ffffffffffffffffffffffffffffffffffffffff168273ffffffffffffffffffffffffffffffffffffffff167fddf252ad1be2c89b69c2b068fc378daa952ba7f163c4a11628f55a4df523b3ef60405160405180910390a4809150509392505050565b600073ffffffffffffffffffffffffffffffffffffffff168273ffffffffffffffffffffffffffffffffffffffff1603610dd157816040517f5b08ba18000000000000000000000000000000000000000000000000000000008152600401610dc89190611765565b60405180910390fd5b80600560008573ffffffffffffffffffffffffffffffffffffffff1673ffffffffffffffffffffffffffffffffffffffff16815260200190815260200160002060008473ffffffffffffffffffffffffffffffffffffffff1673ffffffffffffffffffffffffffffffffffffffff16815260200190815260200160002060006101000a81548160ff0219169083151502179055508173ffffffffffffffffffffffffffffffffffffffff168373ffffffffffffffffffffffffffffffffffffffff167f17307eab39ab6107e8899845ad3d59bd9653f200f220920489ca2b5937696c3183604051610ec291906115f4565b60405180910390a3505050565b60008373ffffffffffffffffffffffffffffffffffffffff163b1115611080578273ffffffffffffffffffffffffffffffffffffffff1663150b7a02610f13610b2c565b8685856040518563ffffffff1660e01b8152600401610f359493929190611ca9565b6020604051808303816000875af1925050508015610f7157506040513d601f19601f82011682018060405250810190610f6e9190611d0a565b60015b610ff5573d8060008114610fa1576040519150601f19603f3d011682016040523d82523d6000602084013e610fa6565b606091505b506000815103610fed57836040517f64a0ae92000000000000000000000000000000000000000000000000000000008152600401610fe49190611765565b60405180910390fd5b805181602001fd5b63150b7a0260e01b7bffffffffffffffffffffffffffffffffffffffffffffffffffffffff1916817bffffffffffffffffffffffffffffffffffffffffffffffffffffffff19161461107e57836040517f64a0ae920000000000000000000000000000000000000000000000000000000081526004016110759190611765565b60405180910390fd5b505b50505050565b6110a082826040518060200160405280600081525061136a565b5050565b60006002600083815260200190815260200160002060009054906101000a900473ffffffffffffffffffffffffffffffffffffffff169050919050565b808061111a5750600073ffffffffffffffffffffffffffffffffffffffff168273ffffffffffffffffffffffffffffffffffffffff1614155b1561124e57600061112a84610a67565b9050600073ffffffffffffffffffffffffffffffffffffffff168373ffffffffffffffffffffffffffffffffffffffff161415801561119557508273ffffffffffffffffffffffffffffffffffffffff168173ffffffffffffffffffffffffffffffffffffffff1614155b80156111a857506111a6818461094d565b155b156111ea57826040517fa9fbf51f0000000000000000000000000000000000000000000000000000000081526004016111e19190611765565b60405180910390fd5b811561124c57838573ffffffffffffffffffffffffffffffffffffffff168273ffffffffffffffffffffffffffffffffffffffff167f8c5be1e5ebec7d5bd14f71427d1e84f3dd0314c0f7b2291e5b200ac8c7c3b92560405160405180910390a45b505b836004600085815260200190815260200160002060006101000a81548173ffffffffffffffffffffffffffffffffffffffff021916908373ffffffffffffffffffffffffffffffffffffffff16021790555050505050565b6112b1838383611386565b61136557600073ffffffffffffffffffffffffffffffffffffffff168373ffffffffffffffffffffffffffffffffffffffff160361132657806040517f7e27328900000000000000000000000000000000000000000000000000000000815260040161131d919061184e565b60405180910390fd5b81816040517f177e802f00000000000000000000000000000000000000000000000000000000815260040161135c929190611d37565b60405180910390fd5b505050565b6113748383611447565b6113816000848484610ecf565b505050565b60008073ffffffffffffffffffffffffffffffffffffffff168373ffffffffffffffffffffffffffffffffffffffff161415801561143e57508273ffffffffffffffffffffffffffffffffffffffff168473ffffffffffffffffffffffffffffffffffffffff1614806113ff57506113fe848461094d565b5b8061143d57508273ffffffffffffffffffffffffffffffffffffffff1661142583610aef565b73ffffffffffffffffffffffffffffffffffffffff16145b5b90509392505050565b600073ffffffffffffffffffffffffffffffffffffffff168273ffffffffffffffffffffffffffffffffffffffff16036114b95760006040517f64a0ae920000000000000000000000000000000000000000000000000000000081526004016114b09190611765565b60405180910390fd5b60006114c783836000610b46565b9050600073ffffffffffffffffffffffffffffffffffffffff168173ffffffffffffffffffffffffffffffffffffffff161461153b5760006040517f73c6ac6e0000000000000000000000000000000000000000000000000000000081526004016115329190611765565b60405180910390fd5b505050565b6000604051905090565b600080fd5b600080fd5b60007fffffffff0000000000000000000000000000000000000000000000000000000082169050919050565b61158981611554565b811461159457600080fd5b50565b6000813590506115a681611580565b92915050565b6000602082840312156115c2576115c161154a565b5b60006115d084828501611597565b91505092915050565b60008115159050919050565b6115ee816115d9565b82525050565b600060208201905061160960008301846115e5565b92915050565b600081519050919050565b600082825260208201905092915050565b60005b8381101561164957808201518184015260208101905061162e565b60008484015250505050565b6000601f19601f8301169050919050565b60006116718261160f565b61167b818561161a565b935061168b81856020860161162b565b61169481611655565b840191505092915050565b600060208201905081810360008301526116b98184611666565b905092915050565b6000819050919050565b6116d4816116c1565b81146116df57600080fd5b50565b6000813590506116f1816116cb565b92915050565b60006020828403121561170d5761170c61154a565b5b600061171b848285016116e2565b91505092915050565b600073ffffffffffffffffffffffffffffffffffffffff82169050919050565b600061174f82611724565b9050919050565b61175f81611744565b82525050565b600060208201905061177a6000830184611756565b92915050565b61178981611744565b811461179457600080fd5b50565b6000813590506117a681611780565b92915050565b600080604083850312156117c3576117c261154a565b5b60006117d185828601611797565b92505060206117e2858286016116e2565b9150509250929050565b6000806000606084860312156118055761180461154a565b5b600061181386828701611797565b935050602061182486828701611797565b9250506040611835868287016116e2565b9150509250925092565b611848816116c1565b82525050565b6000602082019050611863600083018461183f565b92915050565b60006020828403121561187f5761187e61154a565b5b600061188d84828501611797565b91505092915050565b61189f816115d9565b81146118aa57600080fd5b50565b6000813590506118bc81611896565b92915050565b600080604083850312156118d9576118d861154a565b5b60006118e785828601611797565b92505060206118f8858286016118ad565b9150509250929050565b600080fd5b600080fd5b7f4e487b7100000000000000000000000000000000000000000000000000000000600052604160045260246000fd5b61194482611655565b810181811067ffffffffffffffff821117156119635761196261190c565b5b80604052505050565b6000611976611540565b9050611982828261193b565b919050565b600067ffffffffffffffff8211156119a2576119a161190c565b5b6119ab82611655565b9050602081019050919050565b82818337600083830152505050565b60006119da6119d584611987565b61196c565b9050828152602081018484840111156119f6576119f5611907565b5b611a018482856119b8565b509392505050565b600082601f830112611a1e57611a1d611902565b5b8135611a2e8482602086016119c7565b91505092915050565b60008060008060808587031215611a5157611a5061154a565b5b6000611a5f87828801611797565b9450506020611a7087828801611797565b9350506040611a81878288016116e2565b925050606085013567ffffffffffffffff811115611aa257611aa161154f565b5b611aae87828801611a09565b91505092959194509250565b60008060408385031215611ad157611ad061154a565b5b6000611adf85828601611797565b9250506020611af085828601611797565b9150509250929050565b7f4e487b7100000000000000000000000000000000000000000000000000000000600052602260045260246000fd5b60006002820490506001821680611b4157607f821691505b602082108103611b5457611b53611afa565b5b50919050565b6000606082019050611b6f6000830186611756565b611b7c602083018561183f565b611b896040830184611756565b949350505050565b7f4e487b7100000000000000000000000000000000000000000000000000000000600052601160045260246000fd5b6000611bcb826116c1565b9150611bd6836116c1565b9250828201905080821115611bee57611bed611b91565b5b92915050565b7f4e487b7100000000000000000000000000000000000000000000000000000000600052601260045260246000fd5b6000611c2e826116c1565b9150611c39836116c1565b925082611c4957611c48611bf4565b5b828206905092915050565b600081519050919050565b600082825260208201905092915050565b6000611c7b82611c54565b611c858185611c5f565b9350611c9581856020860161162b565b611c9e81611655565b840191505092915050565b6000608082019050611cbe6000830187611756565b611ccb6020830186611756565b611cd8604083018561183f565b8181036060830152611cea8184611c70565b905095945050505050565b600081519050611d0481611580565b92915050565b600060208284031215611d2057611d1f61154a565b5b6000611d2e84828501611cf5565b91505092915050565b6000604082019050611d4c6000830185611756565b611d59602083018461183f565b939250505056fe68747470733a2f2f697066732e66696c65626173652e696f2f697066732f516d547a36616a6e4c5558776158436a5a375a76646b326e584764514e73706e4c507367775a464450343574554a2f66617368696f6e2e6a736f6e68747470733a2f2f697066732e66696c65626173652e696f2f697066732f516d547a36616a6e4c5558776158436a5a375a76646b326e584764514e73706e4c507367775a464450343574554a2f736d6f6b652e6a736f6e68747470733a2f2f697066732e66696c65626173652e696f2f697066732f516d547a36616a6e4c5558776158436a5a375a76646b326e584764514e73706e4c507367775a464450343574554a2f676f646661746865722e6a736f6e68747470733a2f2f697066732e66696c65626173652e696f2f697066732f516d547a36616a6e4c5558776158436a5a375a76646b326e584764514e73706e4c507367775a464450343574554a2f67686f73742e6a736f6ea2646970667358221220f6ceb5e33acfcf80992b0cdf5ee62c7354f62eed6a7d620b4598ca5b4ea222b864736f6c63430008180033",
  "linkReferences": {},
  "deployedLinkReferences": {}
}