{
  "_format": "hh-sol-artifact-1",
  "contractName": "NFTMarketPlace",
  "sourceName": "contracts/NFTMarketPlace.sol",
  "abi": [
    {
      "inputs": [],
      "stateMutability": "nonpayable",
      "type": "constructor"
    },
    {
      "inputs": [],
      "name": "ReentrancyGuardReentrantCall",
      "type": "error"
    },
    {
      "anonymous": false,
      "inputs": [
        {
          "indexed": true,
          "internalType": "address",
          "name": "buyer",
          "type": "address"
        },
        {
          "indexed": true,
          "internalType": "address",
          "name": "nftAddress",
          "type": "address"
        },
        {
          "indexed": true,
          "internalType": "uint256",
          "name": "tokenId",
          "type": "uint256"
        },
        {
          "indexed": false,
          "internalType": "uint256",
          "name": "price",
          "type": "uint256"
        }
      ],
      "name": "BuyItem",
      "type": "event"
    },
    {
      "anonymous": false,
      "inputs": [
        {
          "indexed": true,
          "internalType": "address",
          "name": "seller",
          "type": "address"
        },
        {
          "indexed": true,
          "internalType": "address",
          "name": "nftAddress",
          "type": "address"
        },
        {
          "indexed": true,
          "internalType": "uint256",
          "name": "tokenId",
          "type": "uint256"
        }
      ],
      "name": "CancelListing",
      "type": "event"
    },
    {
      "anonymous": false,
      "inputs": [
        {
          "indexed": true,
          "internalType": "address",
          "name": "seller",
          "type": "address"
        },
        {
          "indexed": true,
          "internalType": "address",
          "name": "nftAddress",
          "type": "address"
        },
        {
          "indexed": true,
          "internalType": "uint256",
          "name": "tokenId",
          "type": "uint256"
        },
        {
          "indexed": false,
          "internalType": "uint256",
          "name": "price",
          "type": "uint256"
        }
      ],
      "name": "ItemListed",
      "type": "event"
    },
    {
      "inputs": [
        {
          "internalType": "address",
          "name": "nftAddress",
          "type": "address"
        },
        {
          "internalType": "uint256",
          "name": "tokenId",
          "type": "uint256"
        }
      ],
      "name": "buyItem",
      "outputs": [],
      "stateMutability": "payable",
      "type": "function"
    },
    {
      "inputs": [
        {
          "internalType": "address",
          "name": "nftAddress",
          "type": "address"
        },
        {
          "internalType": "uint256",
          "name": "tokenId",
          "type": "uint256"
        }
      ],
      "name": "cancelListing",
      "outputs": [],
      "stateMutability": "nonpayable",
      "type": "function"
    },
    {
      "inputs": [
        {
          "internalType": "address",
          "name": "nftAddress",
          "type": "address"
        },
        {
          "internalType": "uint256",
          "name": "tokenId",
          "type": "uint256"
        }
      ],
      "name": "getListing",
      "outputs": [
        {
          "components": [
            {
              "internalType": "uint256",
              "name": "price",
              "type": "uint256"
            },
            {
              "internalType": "address",
              "name": "seller",
              "type": "address"
            }
          ],
          "internalType": "struct NFTMarketPlace.Listing",
          "name": "",
          "type": "tuple"
        }
      ],
      "stateMutability": "view",
      "type": "function"
    },
    {
      "inputs": [
        {
          "internalType": "address",
          "name": "seller",
          "type": "address"
        }
      ],
      "name": "getProceeds",
      "outputs": [
        {
          "internalType": "uint256",
          "name": "",
          "type": "uint256"
        }
      ],
      "stateMutability": "view",
      "type": "function"
    },
    {
      "inputs": [],
      "name": "i_owner",
      "outputs": [
        {
          "internalType": "address",
          "name": "",
          "type": "address"
        }
      ],
      "stateMutability": "view",
      "type": "function"
    },
    {
      "inputs": [
        {
          "internalType": "address",
          "name": "nftAddress",
          "type": "address"
        },
        {
          "internalType": "uint256",
          "name": "price",
          "type": "uint256"
        },
        {
          "internalType": "uint256",
          "name": "tokenId",
          "type": "uint256"
        }
      ],
      "name": "listItem",
      "outputs": [],
      "stateMutability": "nonpayable",
      "type": "function"
    },
    {
      "inputs": [
        {
          "internalType": "address",
          "name": "nftAddress",
          "type": "address"
        },
        {
          "internalType": "uint256",
          "name": "tokenId",
          "type": "uint256"
        },
        {
          "internalType": "uint256",
          "name": "newPrice",
          "type": "uint256"
        }
      ],
      "name": "updateListing",
      "outputs": [],
      "stateMutability": "nonpayable",
      "type": "function"
    },
    {
      "inputs": [],
      "name": "withDrawProceeds",
      "outputs": [],
      "stateMutability": "nonpayable",
      "type": "function"
    }
  ],
  "bytecode": "0x60a060405234801561001057600080fd5b5060016000819055503373ffffffffffffffffffffffffffffffffffffffff1660808173ffffffffffffffffffffffffffffffffffffffff16815250506080516119006100686000396000610f2501526119006000f3fe60806040526004361061007b5760003560e01c8063b2ddee061161004e578063b2ddee061461013f578063c6890de514610168578063dba6335f1461017f578063f772adf1146101aa5761007b565b806330cfeda91461008057806388700d1c146100bd57806389bfd38f146100fa5780639f37092a14610123575b600080fd5b34801561008c57600080fd5b506100a760048036038101906100a291906112eb565b6101d3565b6040516100b49190611331565b60405180910390f35b3480156100c957600080fd5b506100e460048036038101906100df9190611378565b61021c565b6040516100f19190611405565b60405180910390f35b34801561010657600080fd5b50610121600480360381019061011c9190611420565b6102e7565b005b61013d60048036038101906101389190611378565b610750565b005b34801561014b57600080fd5b5061016660048036038101906101619190611378565b610b2e565b005b34801561017457600080fd5b5061017d610e0d565b005b34801561018b57600080fd5b50610194610f23565b6040516101a19190611482565b60405180910390f35b3480156101b657600080fd5b506101d160048036038101906101cc9190611420565b610f47565b005b6000600260008373ffffffffffffffffffffffffffffffffffffffff1673ffffffffffffffffffffffffffffffffffffffff168152602001908152602001600020549050919050565b610224611258565b600160008473ffffffffffffffffffffffffffffffffffffffff1673ffffffffffffffffffffffffffffffffffffffff1681526020019081526020016000206000838152602001908152602001600020604051806040016040529081600082015481526020016001820160009054906101000a900473ffffffffffffffffffffffffffffffffffffffff1673ffffffffffffffffffffffffffffffffffffffff1673ffffffffffffffffffffffffffffffffffffffff1681525050905092915050565b82816000600160008473ffffffffffffffffffffffffffffffffffffffff1673ffffffffffffffffffffffffffffffffffffffff1681526020019081526020016000206000838152602001908152602001600020604051806040016040529081600082015481526020016001820160009054906101000a900473ffffffffffffffffffffffffffffffffffffffff1673ffffffffffffffffffffffffffffffffffffffff1673ffffffffffffffffffffffffffffffffffffffff168152505090506000816000015111156103f0576040517f08c379a00000000000000000000000000000000000000000000000000000000081526004016103e7906114fa565b60405180910390fd5b85843360008390508173ffffffffffffffffffffffffffffffffffffffff168173ffffffffffffffffffffffffffffffffffffffff16636352211e856040518263ffffffff1660e01b81526004016104489190611331565b602060405180830381865afa158015610465573d6000803e3d6000fd5b505050506040513d601f19601f82011682018060405250810190610489919061152f565b73ffffffffffffffffffffffffffffffffffffffff16146104df576040517f08c379a00000000000000000000000000000000000000000000000000000000081526004016104d6906115ce565b60405180910390fd5b60008911610522576040517f08c379a00000000000000000000000000000000000000000000000000000000081526004016105199061163a565b60405180910390fd5b60008a90503073ffffffffffffffffffffffffffffffffffffffff168173ffffffffffffffffffffffffffffffffffffffff1663081812fc8b6040518263ffffffff1660e01b81526004016105779190611331565b602060405180830381865afa158015610594573d6000803e3d6000fd5b505050506040513d601f19601f820116820180604052508101906105b8919061152f565b73ffffffffffffffffffffffffffffffffffffffff161461060e576040517f08c379a0000000000000000000000000000000000000000000000000000000008152600401610605906116cc565b60405180910390fd5b60405180604001604052808b81526020013373ffffffffffffffffffffffffffffffffffffffff16815250600160008d73ffffffffffffffffffffffffffffffffffffffff1673ffffffffffffffffffffffffffffffffffffffff16815260200190815260200160002060008b81526020019081526020016000206000820151816000015560208201518160010160006101000a81548173ffffffffffffffffffffffffffffffffffffffff021916908373ffffffffffffffffffffffffffffffffffffffff160217905550905050888b73ffffffffffffffffffffffffffffffffffffffff163373ffffffffffffffffffffffffffffffffffffffff167fd547e933094f12a9159076970143ebe73234e64480317844b0dcb36117116de48d60405161073b9190611331565b60405180910390a45050505050505050505050565b81816000600160008473ffffffffffffffffffffffffffffffffffffffff1673ffffffffffffffffffffffffffffffffffffffff1681526020019081526020016000206000838152602001908152602001600020604051806040016040529081600082015481526020016001820160009054906101000a900473ffffffffffffffffffffffffffffffffffffffff1673ffffffffffffffffffffffffffffffffffffffff1673ffffffffffffffffffffffffffffffffffffffff168152505090506000816000015111610858576040517f08c379a000000000000000000000000000000000000000000000000000000000815260040161084f90611738565b60405180910390fd5b610860611208565b6000600160008773ffffffffffffffffffffffffffffffffffffffff1673ffffffffffffffffffffffffffffffffffffffff1681526020019081526020016000206000868152602001908152602001600020604051806040016040529081600082015481526020016001820160009054906101000a900473ffffffffffffffffffffffffffffffffffffffff1673ffffffffffffffffffffffffffffffffffffffff1673ffffffffffffffffffffffffffffffffffffffff1681525050905034816000015114610965576040517f08c379a000000000000000000000000000000000000000000000000000000000815260040161095c906117a4565b60405180910390fd5b3460026000836020015173ffffffffffffffffffffffffffffffffffffffff1673ffffffffffffffffffffffffffffffffffffffff16815260200190815260200160002060008282546109b891906117f3565b92505081905550600160008773ffffffffffffffffffffffffffffffffffffffff1673ffffffffffffffffffffffffffffffffffffffff16815260200190815260200160002060008681526020019081526020016000206000808201600090556001820160006101000a81549073ffffffffffffffffffffffffffffffffffffffff021916905550508573ffffffffffffffffffffffffffffffffffffffff166342842e0e826020015133886040518463ffffffff1660e01b8152600401610a8293929190611827565b600060405180830381600087803b158015610a9c57600080fd5b505af1158015610ab0573d6000803e3d6000fd5b50505050848673ffffffffffffffffffffffffffffffffffffffff163373ffffffffffffffffffffffffffffffffffffffff167fc6d7a5e59f38ae48e0f1577ce4627ba9b270bfd4c2c0c7be609c429421bc3d688460000151604051610b169190611331565b60405180910390a450610b2761124e565b5050505050565b81813360008390508173ffffffffffffffffffffffffffffffffffffffff168173ffffffffffffffffffffffffffffffffffffffff16636352211e856040518263ffffffff1660e01b8152600401610b869190611331565b602060405180830381865afa158015610ba3573d6000803e3d6000fd5b505050506040513d601f19601f82011682018060405250810190610bc7919061152f565b73ffffffffffffffffffffffffffffffffffffffff1614610c1d576040517f08c379a0000000000000000000000000000000000000000000000000000000008152600401610c14906115ce565b60405180910390fd5b85856000600160008473ffffffffffffffffffffffffffffffffffffffff1673ffffffffffffffffffffffffffffffffffffffff1681526020019081526020016000206000838152602001908152602001600020604051806040016040529081600082015481526020016001820160009054906101000a900473ffffffffffffffffffffffffffffffffffffffff1673ffffffffffffffffffffffffffffffffffffffff1673ffffffffffffffffffffffffffffffffffffffff168152505090506000816000015111610d25576040517f08c379a0000000000000000000000000000000000000000000000000000000008152600401610d1c90611738565b60405180910390fd5b600160008a73ffffffffffffffffffffffffffffffffffffffff1673ffffffffffffffffffffffffffffffffffffffff16815260200190815260200160002060008981526020019081526020016000206000808201600090556001820160006101000a81549073ffffffffffffffffffffffffffffffffffffffff02191690555050878973ffffffffffffffffffffffffffffffffffffffff163373ffffffffffffffffffffffffffffffffffffffff167f061e64e10e5e57615a6fe38b48c81926f6999a2f5304d3e5e6b0d3cfac4865a560405160405180910390a4505050505050505050565b6000600260003373ffffffffffffffffffffffffffffffffffffffff1673ffffffffffffffffffffffffffffffffffffffff16815260200190815260200160002054905060008111610e94576040517f08c379a0000000000000000000000000000000000000000000000000000000008152600401610e8b906118aa565b60405180910390fd5b6000600260003373ffffffffffffffffffffffffffffffffffffffff1673ffffffffffffffffffffffffffffffffffffffff168152602001908152602001600020819055503373ffffffffffffffffffffffffffffffffffffffff166108fc829081150290604051600060405180830381858888f19350505050158015610f1f573d6000803e3d6000fd5b5050565b7f000000000000000000000000000000000000000000000000000000000000000081565b82823360008390508173ffffffffffffffffffffffffffffffffffffffff168173ffffffffffffffffffffffffffffffffffffffff16636352211e856040518263ffffffff1660e01b8152600401610f9f9190611331565b602060405180830381865afa158015610fbc573d6000803e3d6000fd5b505050506040513d601f19601f82011682018060405250810190610fe0919061152f565b73ffffffffffffffffffffffffffffffffffffffff1614611036576040517f08c379a000000000000000000000000000000000000000000000000000000000815260040161102d906115ce565b60405180910390fd5b86866000600160008473ffffffffffffffffffffffffffffffffffffffff1673ffffffffffffffffffffffffffffffffffffffff1681526020019081526020016000206000838152602001908152602001600020604051806040016040529081600082015481526020016001820160009054906101000a900473ffffffffffffffffffffffffffffffffffffffff1673ffffffffffffffffffffffffffffffffffffffff1673ffffffffffffffffffffffffffffffffffffffff16815250509050600081600001511161113e576040517f08c379a000000000000000000000000000000000000000000000000000000000815260040161113590611738565b60405180910390fd5b87600160008c73ffffffffffffffffffffffffffffffffffffffff1673ffffffffffffffffffffffffffffffffffffffff16815260200190815260200160002060008b815260200190815260200160002060000181905550888a73ffffffffffffffffffffffffffffffffffffffff163373ffffffffffffffffffffffffffffffffffffffff167fd547e933094f12a9159076970143ebe73234e64480317844b0dcb36117116de48b6040516111f49190611331565b60405180910390a450505050505050505050565b600260005403611244576040517f3ee5aeb500000000000000000000000000000000000000000000000000000000815260040160405180910390fd5b6002600081905550565b6001600081905550565b604051806040016040528060008152602001600073ffffffffffffffffffffffffffffffffffffffff1681525090565b600080fd5b600073ffffffffffffffffffffffffffffffffffffffff82169050919050565b60006112b88261128d565b9050919050565b6112c8816112ad565b81146112d357600080fd5b50565b6000813590506112e5816112bf565b92915050565b60006020828403121561130157611300611288565b5b600061130f848285016112d6565b91505092915050565b6000819050919050565b61132b81611318565b82525050565b60006020820190506113466000830184611322565b92915050565b61135581611318565b811461136057600080fd5b50565b6000813590506113728161134c565b92915050565b6000806040838503121561138f5761138e611288565b5b600061139d858286016112d6565b92505060206113ae85828601611363565b9150509250929050565b6113c181611318565b82525050565b6113d0816112ad565b82525050565b6040820160008201516113ec60008501826113b8565b5060208201516113ff60208501826113c7565b50505050565b600060408201905061141a60008301846113d6565b92915050565b60008060006060848603121561143957611438611288565b5b6000611447868287016112d6565b935050602061145886828701611363565b925050604061146986828701611363565b9150509250925092565b61147c816112ad565b82525050565b60006020820190506114976000830184611473565b92915050565b600082825260208201905092915050565b7f43757272656e74204e465420686173206c697374656421000000000000000000600082015250565b60006114e460178361149d565b91506114ef826114ae565b602082019050919050565b60006020820190508181036000830152611513816114d7565b9050919050565b600081519050611529816112bf565b92915050565b60006020828403121561154557611544611288565b5b60006115538482850161151a565b91505092915050565b7f54686973204e4654206973206e6f742062656c6f6e6720746f2063757272656e60008201527f7420616464726573732100000000000000000000000000000000000000000000602082015250565b60006115b8602a8361149d565b91506115c38261155c565b604082019050919050565b600060208201905081810360008301526115e7816115ab565b9050919050565b7f4e6674207072696365206d757374206e656564206f766572207a65726f210000600082015250565b6000611624601e8361149d565b915061162f826115ee565b602082019050919050565b6000602082019050818103600083015261165381611617565b9050919050565b7f43757272656e74206d61726b657420686173206e6f74206265656e206170707260008201527f6f7665642062792074686973206e667421000000000000000000000000000000602082015250565b60006116b660318361149d565b91506116c18261165a565b604082019050919050565b600060208201905081810360008301526116e5816116a9565b9050919050565b7f43757272656e74204e465420686173206e6f206c697374656421000000000000600082015250565b6000611722601a8361149d565b915061172d826116ec565b602082019050919050565b6000602082019050818103600083015261175181611715565b9050919050565b7f4e4654207072696365206e6f74206d6574210000000000000000000000000000600082015250565b600061178e60128361149d565b915061179982611758565b602082019050919050565b600060208201905081810360008301526117bd81611781565b9050919050565b7f4e487b7100000000000000000000000000000000000000000000000000000000600052601160045260246000fd5b60006117fe82611318565b915061180983611318565b9250828201905080821115611821576118206117c4565b5b92915050565b600060608201905061183c6000830186611473565b6118496020830185611473565b6118566040830184611322565b949350505050565b7f796f752068617665206e6f2070726f6365656473210000000000000000000000600082015250565b600061189460158361149d565b915061189f8261185e565b602082019050919050565b600060208201905081810360008301526118c381611887565b905091905056fea2646970667358221220e0a7fd7e89b656df89f1ceed801b294c8f8fa3445da757d5a9b9ccd58e9f289d64736f6c63430008180033",
  "linkReferences": {},
  "deployedLinkReferences": {}
}